{
    "_format": "hh-sol-artifact-1",
    "contractName": "NGM",
    "sourceName": "contracts/NGM.sol",
    "address": "0xcEA93933c4F9017918679D33742804bBa7399B08",
    "abi": [
        {
            "inputs": [],
            "stateMutability": "nonpayable",
            "type": "constructor"
        },
        {
            "anonymous": false,
            "inputs": [
                {
                    "indexed": true,
                    "internalType": "address",
                    "name": "owner",
                    "type": "address"
                },
                {
                    "indexed": true,
                    "internalType": "address",
                    "name": "spender",
                    "type": "address"
                },
                {
                    "indexed": false,
                    "internalType": "uint256",
                    "name": "value",
                    "type": "uint256"
                }
            ],
            "name": "Approval",
            "type": "event"
        },
        {
            "anonymous": false,
            "inputs": [
                {
                    "indexed": true,
                    "internalType": "address",
                    "name": "previousOwner",
                    "type": "address"
                },
                {
                    "indexed": true,
                    "internalType": "address",
                    "name": "newOwner",
                    "type": "address"
                }
            ],
            "name": "OwnershipTransferred",
            "type": "event"
        },
        {
            "anonymous": false,
            "inputs": [
                {
                    "indexed": true,
                    "internalType": "address",
                    "name": "from",
                    "type": "address"
                },
                {
                    "indexed": true,
                    "internalType": "address",
                    "name": "to",
                    "type": "address"
                },
                {
                    "indexed": false,
                    "internalType": "uint256",
                    "name": "value",
                    "type": "uint256"
                }
            ],
            "name": "Transfer",
            "type": "event"
        },
        {
            "inputs": [],
            "name": "_name",
            "outputs": [
                {
                    "internalType": "string",
                    "name": "",
                    "type": "string"
                }
            ],
            "stateMutability": "view",
            "type": "function"
        },
        {
            "inputs": [],
            "name": "_symbol",
            "outputs": [
                {
                    "internalType": "string",
                    "name": "",
                    "type": "string"
                }
            ],
            "stateMutability": "view",
            "type": "function"
        },
        {
            "inputs": [
                {
                    "internalType": "address",
                    "name": "owner",
                    "type": "address"
                },
                {
                    "internalType": "address",
                    "name": "spender",
                    "type": "address"
                }
            ],
            "name": "allowance",
            "outputs": [
                {
                    "internalType": "uint256",
                    "name": "",
                    "type": "uint256"
                }
            ],
            "stateMutability": "view",
            "type": "function"
        },
        {
            "inputs": [
                {
                    "internalType": "address",
                    "name": "spender",
                    "type": "address"
                },
                {
                    "internalType": "uint256",
                    "name": "amount",
                    "type": "uint256"
                }
            ],
            "name": "approve",
            "outputs": [
                {
                    "internalType": "bool",
                    "name": "",
                    "type": "bool"
                }
            ],
            "stateMutability": "nonpayable",
            "type": "function"
        },
        {
            "inputs": [
                {
                    "internalType": "address",
                    "name": "account",
                    "type": "address"
                }
            ],
            "name": "balanceOf",
            "outputs": [
                {
                    "internalType": "uint256",
                    "name": "",
                    "type": "uint256"
                }
            ],
            "stateMutability": "view",
            "type": "function"
        },
        {
            "inputs": [],
            "name": "decimals",
            "outputs": [
                {
                    "internalType": "uint8",
                    "name": "",
                    "type": "uint8"
                }
            ],
            "stateMutability": "view",
            "type": "function"
        },
        {
            "inputs": [
                {
                    "internalType": "address",
                    "name": "spender",
                    "type": "address"
                },
                {
                    "internalType": "uint256",
                    "name": "subtractedValue",
                    "type": "uint256"
                }
            ],
            "name": "decreaseAllowance",
            "outputs": [
                {
                    "internalType": "bool",
                    "name": "",
                    "type": "bool"
                }
            ],
            "stateMutability": "nonpayable",
            "type": "function"
        },
        {
            "inputs": [
                {
                    "internalType": "address",
                    "name": "spender",
                    "type": "address"
                },
                {
                    "internalType": "uint256",
                    "name": "addedValue",
                    "type": "uint256"
                }
            ],
            "name": "increaseAllowance",
            "outputs": [
                {
                    "internalType": "bool",
                    "name": "",
                    "type": "bool"
                }
            ],
            "stateMutability": "nonpayable",
            "type": "function"
        },
        {
            "inputs": [
                {
                    "internalType": "uint256",
                    "name": "_amount",
                    "type": "uint256"
                }
            ],
            "name": "mintMore",
            "outputs": [],
            "stateMutability": "nonpayable",
            "type": "function"
        },
        {
            "inputs": [],
            "name": "name",
            "outputs": [
                {
                    "internalType": "string",
                    "name": "",
                    "type": "string"
                }
            ],
            "stateMutability": "view",
            "type": "function"
        },
        {
            "inputs": [],
            "name": "owner",
            "outputs": [
                {
                    "internalType": "address",
                    "name": "",
                    "type": "address"
                }
            ],
            "stateMutability": "view",
            "type": "function"
        },
        {
            "inputs": [],
            "name": "renounceOwnership",
            "outputs": [],
            "stateMutability": "nonpayable",
            "type": "function"
        },
        {
            "inputs": [
                {
                    "internalType": "address",
                    "name": "_to",
                    "type": "address"
                },
                {
                    "internalType": "uint256",
                    "name": "_amount",
                    "type": "uint256"
                }
            ],
            "name": "sendTokens",
            "outputs": [],
            "stateMutability": "nonpayable",
            "type": "function"
        },
        {
            "inputs": [],
            "name": "symbol",
            "outputs": [
                {
                    "internalType": "string",
                    "name": "",
                    "type": "string"
                }
            ],
            "stateMutability": "view",
            "type": "function"
        },
        {
            "inputs": [],
            "name": "totalSupply",
            "outputs": [
                {
                    "internalType": "uint256",
                    "name": "",
                    "type": "uint256"
                }
            ],
            "stateMutability": "view",
            "type": "function"
        },
        {
            "inputs": [
                {
                    "internalType": "address",
                    "name": "to",
                    "type": "address"
                },
                {
                    "internalType": "uint256",
                    "name": "amount",
                    "type": "uint256"
                }
            ],
            "name": "transfer",
            "outputs": [
                {
                    "internalType": "bool",
                    "name": "",
                    "type": "bool"
                }
            ],
            "stateMutability": "nonpayable",
            "type": "function"
        },
        {
            "inputs": [
                {
                    "internalType": "address",
                    "name": "from",
                    "type": "address"
                },
                {
                    "internalType": "address",
                    "name": "to",
                    "type": "address"
                },
                {
                    "internalType": "uint256",
                    "name": "amount",
                    "type": "uint256"
                }
            ],
            "name": "transferFrom",
            "outputs": [
                {
                    "internalType": "bool",
                    "name": "",
                    "type": "bool"
                }
            ],
            "stateMutability": "nonpayable",
            "type": "function"
        },
        {
            "inputs": [
                {
                    "internalType": "address",
                    "name": "newOwner",
                    "type": "address"
                }
            ],
            "name": "transferOwnership",
            "outputs": [],
            "stateMutability": "nonpayable",
            "type": "function"
        }
    ],
    "bytecode": "0x60806040526040518060400160405280601281526020017f4e6578742047656e204d61726b6574696e6700000000000000000000000000008152506006908051906020019062000051929190620004b0565b506040518060400160405280600381526020017f4e474d0000000000000000000000000000000000000000000000000000000000815250600790805190602001906200009f929190620004b0565b5063b2d05e00600855348015620000b557600080fd5b5060068054620000c5906200058f565b80601f0160208091040260200160405190810160405280929190818152602001828054620000f3906200058f565b8015620001445780601f10620001185761010080835404028352916020019162000144565b820191906000526020600020905b8154815290600101906020018083116200012657829003601f168201915b50505050506007805462000158906200058f565b80601f016020809104026020016040519081016040528092919081815260200182805462000186906200058f565b8015620001d75780601f10620001ab57610100808354040283529160200191620001d7565b820191906000526020600020905b815481529060010190602001808311620001b957829003601f168201915b50505050508160039080519060200190620001f4929190620004b0565b5080600490805190602001906200020d929190620004b0565b50505062000230620002246200025f60201b60201c565b6200026760201b60201c565b6200025930670de0b6b3a76400006008546200024d9190620005fe565b6200032d60201b60201c565b6200076d565b600033905090565b6000600560009054906101000a900473ffffffffffffffffffffffffffffffffffffffff16905081600560006101000a81548173ffffffffffffffffffffffffffffffffffffffff021916908373ffffffffffffffffffffffffffffffffffffffff1602179055508173ffffffffffffffffffffffffffffffffffffffff168173ffffffffffffffffffffffffffffffffffffffff167f8be0079c531659141344cd1fd0a4f28419497f9722a3daafe3b4186f6b6457e060405160405180910390a35050565b600073ffffffffffffffffffffffffffffffffffffffff168273ffffffffffffffffffffffffffffffffffffffff161415620003a0576040517f08c379a00000000000000000000000000000000000000000000000000000000081526004016200039790620006c0565b60405180910390fd5b620003b460008383620004a660201b60201c565b8060026000828254620003c89190620006e2565b92505081905550806000808473ffffffffffffffffffffffffffffffffffffffff1673ffffffffffffffffffffffffffffffffffffffff16815260200190815260200160002060008282546200041f9190620006e2565b925050819055508173ffffffffffffffffffffffffffffffffffffffff16600073ffffffffffffffffffffffffffffffffffffffff167fddf252ad1be2c89b69c2b068fc378daa952ba7f163c4a11628f55a4df523b3ef8360405162000486919062000750565b60405180910390a3620004a260008383620004ab60201b60201c565b5050565b505050565b505050565b828054620004be906200058f565b90600052602060002090601f016020900481019282620004e257600085556200052e565b82601f10620004fd57805160ff19168380011785556200052e565b828001600101855582156200052e579182015b828111156200052d57825182559160200191906001019062000510565b5b5090506200053d919062000541565b5090565b5b808211156200055c57600081600090555060010162000542565b5090565b7f4e487b7100000000000000000000000000000000000000000000000000000000600052602260045260246000fd5b60006002820490506001821680620005a857607f821691505b60208210811415620005bf57620005be62000560565b5b50919050565b6000819050919050565b7f4e487b7100000000000000000000000000000000000000000000000000000000600052601160045260246000fd5b60006200060b82620005c5565b91506200061883620005c5565b9250817fffffffffffffffffffffffffffffffffffffffffffffffffffffffffffffffff0483118215151615620006545762000653620005cf565b5b828202905092915050565b600082825260208201905092915050565b7f45524332303a206d696e7420746f20746865207a65726f206164647265737300600082015250565b6000620006a8601f836200065f565b9150620006b58262000670565b602082019050919050565b60006020820190508181036000830152620006db8162000699565b9050919050565b6000620006ef82620005c5565b9150620006fc83620005c5565b9250827fffffffffffffffffffffffffffffffffffffffffffffffffffffffffffffffff03821115620007345762000733620005cf565b5b828201905092915050565b6200074a81620005c5565b82525050565b60006020820190506200076760008301846200073f565b92915050565b611aaa806200077d6000396000f3fe608060405234801561001057600080fd5b50600436106101165760003560e01c8063715018a6116100a2578063a9059cbb11610071578063a9059cbb146102e3578063b09f126614610313578063d28d885214610331578063dd62ed3e1461034f578063f2fde38b1461037f57610116565b8063715018a61461026d5780638da5cb5b1461027757806395d89b4114610295578063a457c2d7146102b357610116565b806323b872dd116100e957806323b872dd146101a3578063313ce567146101d357806339509351146101f15780636f8aba4c1461022157806370a082311461023d57610116565b806305ab421d1461011b57806306fdde0314610137578063095ea7b31461015557806318160ddd14610185575b600080fd5b61013560048036038101906101309190611137565b61039b565b005b61013f6103f4565b60405161014c9190611210565b60405180910390f35b61016f600480360381019061016a9190611137565b610486565b60405161017c919061124d565b60405180910390f35b61018d6104a9565b60405161019a9190611277565b60405180910390f35b6101bd60048036038101906101b89190611292565b6104b3565b6040516101ca919061124d565b60405180910390f35b6101db6104e2565b6040516101e89190611301565b60405180910390f35b61020b60048036038101906102069190611137565b6104eb565b604051610218919061124d565b60405180910390f35b61023b6004803603810190610236919061131c565b610522565b005b61025760048036038101906102529190611349565b610537565b6040516102649190611277565b60405180910390f35b61027561057f565b005b61027f610593565b60405161028c9190611385565b60405180910390f35b61029d6105bd565b6040516102aa9190611210565b60405180910390f35b6102cd60048036038101906102c89190611137565b61064f565b6040516102da919061124d565b60405180910390f35b6102fd60048036038101906102f89190611137565b6106c6565b60405161030a919061124d565b60405180910390f35b61031b6106e9565b6040516103289190611210565b60405180910390f35b610339610777565b6040516103469190611210565b60405180910390f35b610369600480360381019061036491906113a0565b610805565b6040516103769190611277565b60405180910390f35b61039960048036038101906103949190611349565b61088c565b005b6103a3610910565b4781116103e5576040517f08c379a00000000000000000000000000000000000000000000000000000000081526004016103dc9061142c565b60405180910390fd5b6103f030838361098e565b5050565b6060600380546104039061147b565b80601f016020809104026020016040519081016040528092919081815260200182805461042f9061147b565b801561047c5780601f106104515761010080835404028352916020019161047c565b820191906000526020600020905b81548152906001019060200180831161045f57829003601f168201915b5050505050905090565b600080610491610c0f565b905061049e818585610c17565b600191505092915050565b6000600254905090565b6000806104be610c0f565b90506104cb858285610de2565b6104d685858561098e565b60019150509392505050565b60006012905090565b6000806104f6610c0f565b90506105178185856105088589610805565b61051291906114dc565b610c17565b600191505092915050565b61052a610910565b6105343082610e6e565b50565b60008060008373ffffffffffffffffffffffffffffffffffffffff1673ffffffffffffffffffffffffffffffffffffffff168152602001908152602001600020549050919050565b610587610910565b6105916000610fce565b565b6000600560009054906101000a900473ffffffffffffffffffffffffffffffffffffffff16905090565b6060600480546105cc9061147b565b80601f01602080910402602001604051908101604052809291908181526020018280546105f89061147b565b80156106455780601f1061061a57610100808354040283529160200191610645565b820191906000526020600020905b81548152906001019060200180831161062857829003601f168201915b5050505050905090565b60008061065a610c0f565b905060006106688286610805565b9050838110156106ad576040517f08c379a00000000000000000000000000000000000000000000000000000000081526004016106a4906115a4565b60405180910390fd5b6106ba8286868403610c17565b60019250505092915050565b6000806106d1610c0f565b90506106de81858561098e565b600191505092915050565b600780546106f69061147b565b80601f01602080910402602001604051908101604052809291908181526020018280546107229061147b565b801561076f5780601f106107445761010080835404028352916020019161076f565b820191906000526020600020905b81548152906001019060200180831161075257829003601f168201915b505050505081565b600680546107849061147b565b80601f01602080910402602001604051908101604052809291908181526020018280546107b09061147b565b80156107fd5780601f106107d2576101008083540402835291602001916107fd565b820191906000526020600020905b8154815290600101906020018083116107e057829003601f168201915b505050505081565b6000600160008473ffffffffffffffffffffffffffffffffffffffff1673ffffffffffffffffffffffffffffffffffffffff16815260200190815260200160002060008373ffffffffffffffffffffffffffffffffffffffff1673ffffffffffffffffffffffffffffffffffffffff16815260200190815260200160002054905092915050565b610894610910565b600073ffffffffffffffffffffffffffffffffffffffff168173ffffffffffffffffffffffffffffffffffffffff161415610904576040517f08c379a00000000000000000000000000000000000000000000000000000000081526004016108fb90611636565b60405180910390fd5b61090d81610fce565b50565b610918610c0f565b73ffffffffffffffffffffffffffffffffffffffff16610936610593565b73ffffffffffffffffffffffffffffffffffffffff161461098c576040517f08c379a0000000000000000000000000000000000000000000000000000000008152600401610983906116a2565b60405180910390fd5b565b600073ffffffffffffffffffffffffffffffffffffffff168373ffffffffffffffffffffffffffffffffffffffff1614156109fe576040517f08c379a00000000000000000000000000000000000000000000000000000000081526004016109f590611734565b60405180910390fd5b600073ffffffffffffffffffffffffffffffffffffffff168273ffffffffffffffffffffffffffffffffffffffff161415610a6e576040517f08c379a0000000000000000000000000000000000000000000000000000000008152600401610a65906117c6565b60405180910390fd5b610a79838383611094565b60008060008573ffffffffffffffffffffffffffffffffffffffff1673ffffffffffffffffffffffffffffffffffffffff16815260200190815260200160002054905081811015610aff576040517f08c379a0000000000000000000000000000000000000000000000000000000008152600401610af690611858565b60405180910390fd5b8181036000808673ffffffffffffffffffffffffffffffffffffffff1673ffffffffffffffffffffffffffffffffffffffff16815260200190815260200160002081905550816000808573ffffffffffffffffffffffffffffffffffffffff1673ffffffffffffffffffffffffffffffffffffffff1681526020019081526020016000206000828254610b9291906114dc565b925050819055508273ffffffffffffffffffffffffffffffffffffffff168473ffffffffffffffffffffffffffffffffffffffff167fddf252ad1be2c89b69c2b068fc378daa952ba7f163c4a11628f55a4df523b3ef84604051610bf69190611277565b60405180910390a3610c09848484611099565b50505050565b600033905090565b600073ffffffffffffffffffffffffffffffffffffffff168373ffffffffffffffffffffffffffffffffffffffff161415610c87576040517f08c379a0000000000000000000000000000000000000000000000000000000008152600401610c7e906118ea565b60405180910390fd5b600073ffffffffffffffffffffffffffffffffffffffff168273ffffffffffffffffffffffffffffffffffffffff161415610cf7576040517f08c379a0000000000000000000000000000000000000000000000000000000008152600401610cee9061197c565b60405180910390fd5b80600160008573ffffffffffffffffffffffffffffffffffffffff1673ffffffffffffffffffffffffffffffffffffffff16815260200190815260200160002060008473ffffffffffffffffffffffffffffffffffffffff1673ffffffffffffffffffffffffffffffffffffffff168152602001908152602001600020819055508173ffffffffffffffffffffffffffffffffffffffff168373ffffffffffffffffffffffffffffffffffffffff167f8c5be1e5ebec7d5bd14f71427d1e84f3dd0314c0f7b2291e5b200ac8c7c3b92583604051610dd59190611277565b60405180910390a3505050565b6000610dee8484610805565b90507fffffffffffffffffffffffffffffffffffffffffffffffffffffffffffffffff8114610e685781811015610e5a576040517f08c379a0000000000000000000000000000000000000000000000000000000008152600401610e51906119e8565b60405180910390fd5b610e678484848403610c17565b5b50505050565b600073ffffffffffffffffffffffffffffffffffffffff168273ffffffffffffffffffffffffffffffffffffffff161415610ede576040517f08c379a0000000000000000000000000000000000000000000000000000000008152600401610ed590611a54565b60405180910390fd5b610eea60008383611094565b8060026000828254610efc91906114dc565b92505081905550806000808473ffffffffffffffffffffffffffffffffffffffff1673ffffffffffffffffffffffffffffffffffffffff1681526020019081526020016000206000828254610f5191906114dc565b925050819055508173ffffffffffffffffffffffffffffffffffffffff16600073ffffffffffffffffffffffffffffffffffffffff167fddf252ad1be2c89b69c2b068fc378daa952ba7f163c4a11628f55a4df523b3ef83604051610fb69190611277565b60405180910390a3610fca60008383611099565b5050565b6000600560009054906101000a900473ffffffffffffffffffffffffffffffffffffffff16905081600560006101000a81548173ffffffffffffffffffffffffffffffffffffffff021916908373ffffffffffffffffffffffffffffffffffffffff1602179055508173ffffffffffffffffffffffffffffffffffffffff168173ffffffffffffffffffffffffffffffffffffffff167f8be0079c531659141344cd1fd0a4f28419497f9722a3daafe3b4186f6b6457e060405160405180910390a35050565b505050565b505050565b600080fd5b600073ffffffffffffffffffffffffffffffffffffffff82169050919050565b60006110ce826110a3565b9050919050565b6110de816110c3565b81146110e957600080fd5b50565b6000813590506110fb816110d5565b92915050565b6000819050919050565b61111481611101565b811461111f57600080fd5b50565b6000813590506111318161110b565b92915050565b6000806040838503121561114e5761114d61109e565b5b600061115c858286016110ec565b925050602061116d85828601611122565b9150509250929050565b600081519050919050565b600082825260208201905092915050565b60005b838110156111b1578082015181840152602081019050611196565b838111156111c0576000848401525b50505050565b6000601f19601f8301169050919050565b60006111e282611177565b6111ec8185611182565b93506111fc818560208601611193565b611205816111c6565b840191505092915050565b6000602082019050818103600083015261122a81846111d7565b905092915050565b60008115159050919050565b61124781611232565b82525050565b6000602082019050611262600083018461123e565b92915050565b61127181611101565b82525050565b600060208201905061128c6000830184611268565b92915050565b6000806000606084860312156112ab576112aa61109e565b5b60006112b9868287016110ec565b93505060206112ca868287016110ec565b92505060406112db86828701611122565b9150509250925092565b600060ff82169050919050565b6112fb816112e5565b82525050565b600060208201905061131660008301846112f2565b92915050565b6000602082840312156113325761133161109e565b5b600061134084828501611122565b91505092915050565b60006020828403121561135f5761135e61109e565b5b600061136d848285016110ec565b91505092915050565b61137f816110c3565b82525050565b600060208201905061139a6000830184611376565b92915050565b600080604083850312156113b7576113b661109e565b5b60006113c5858286016110ec565b92505060206113d6858286016110ec565b9150509250929050565b7f4e474d3a496e73756666696369656e7420546f6b656e73000000000000000000600082015250565b6000611416601783611182565b9150611421826113e0565b602082019050919050565b6000602082019050818103600083015261144581611409565b9050919050565b7f4e487b7100000000000000000000000000000000000000000000000000000000600052602260045260246000fd5b6000600282049050600182168061149357607f821691505b602082108114156114a7576114a661144c565b5b50919050565b7f4e487b7100000000000000000000000000000000000000000000000000000000600052601160045260246000fd5b60006114e782611101565b91506114f283611101565b9250827fffffffffffffffffffffffffffffffffffffffffffffffffffffffffffffffff03821115611527576115266114ad565b5b828201905092915050565b7f45524332303a2064656372656173656420616c6c6f77616e63652062656c6f7760008201527f207a65726f000000000000000000000000000000000000000000000000000000602082015250565b600061158e602583611182565b915061159982611532565b604082019050919050565b600060208201905081810360008301526115bd81611581565b9050919050565b7f4f776e61626c653a206e6577206f776e657220697320746865207a65726f206160008201527f6464726573730000000000000000000000000000000000000000000000000000602082015250565b6000611620602683611182565b915061162b826115c4565b604082019050919050565b6000602082019050818103600083015261164f81611613565b9050919050565b7f4f776e61626c653a2063616c6c6572206973206e6f7420746865206f776e6572600082015250565b600061168c602083611182565b915061169782611656565b602082019050919050565b600060208201905081810360008301526116bb8161167f565b9050919050565b7f45524332303a207472616e736665722066726f6d20746865207a65726f20616460008201527f6472657373000000000000000000000000000000000000000000000000000000602082015250565b600061171e602583611182565b9150611729826116c2565b604082019050919050565b6000602082019050818103600083015261174d81611711565b9050919050565b7f45524332303a207472616e7366657220746f20746865207a65726f206164647260008201527f6573730000000000000000000000000000000000000000000000000000000000602082015250565b60006117b0602383611182565b91506117bb82611754565b604082019050919050565b600060208201905081810360008301526117df816117a3565b9050919050565b7f45524332303a207472616e7366657220616d6f756e742065786365656473206260008201527f616c616e63650000000000000000000000000000000000000000000000000000602082015250565b6000611842602683611182565b915061184d826117e6565b604082019050919050565b6000602082019050818103600083015261187181611835565b9050919050565b7f45524332303a20617070726f76652066726f6d20746865207a65726f2061646460008201527f7265737300000000000000000000000000000000000000000000000000000000602082015250565b60006118d4602483611182565b91506118df82611878565b604082019050919050565b60006020820190508181036000830152611903816118c7565b9050919050565b7f45524332303a20617070726f766520746f20746865207a65726f20616464726560008201527f7373000000000000000000000000000000000000000000000000000000000000602082015250565b6000611966602283611182565b91506119718261190a565b604082019050919050565b6000602082019050818103600083015261199581611959565b9050919050565b7f45524332303a20696e73756666696369656e7420616c6c6f77616e6365000000600082015250565b60006119d2601d83611182565b91506119dd8261199c565b602082019050919050565b60006020820190508181036000830152611a01816119c5565b9050919050565b7f45524332303a206d696e7420746f20746865207a65726f206164647265737300600082015250565b6000611a3e601f83611182565b9150611a4982611a08565b602082019050919050565b60006020820190508181036000830152611a6d81611a31565b905091905056fea26469706673582212200fc5a6d7320aef8994de4eb02397f4d68e9ef8ba22dc314dc5e3062ffdb35d9064736f6c63430008090033",
    "linkReferences": {},
    "deployedLinkReferences": {}
}